{
  "contractName": "KYC",
  "abi": [
    {
      "inputs": [],
      "stateMutability": "nonpayable",
      "type": "constructor"
    },
    {
      "inputs": [
        {
          "internalType": "bytes32",
          "name": "_userName",
          "type": "bytes32"
        },
        {
          "internalType": "string",
          "name": "_customerData",
          "type": "string"
        }
      ],
      "name": "addKycRequest",
      "outputs": [
        {
          "internalType": "uint8",
          "name": "",
          "type": "uint8"
        }
      ],
      "stateMutability": "nonpayable",
      "type": "function"
    },
    {
      "inputs": [
        {
          "internalType": "bytes32",
          "name": "_userName",
          "type": "bytes32"
        },
        {
          "internalType": "string",
          "name": "_customerData",
          "type": "string"
        }
      ],
      "name": "addCustomer",
      "outputs": [
        {
          "internalType": "uint8",
          "name": "",
          "type": "uint8"
        }
      ],
      "stateMutability": "nonpayable",
      "type": "function"
    },
    {
      "inputs": [
        {
          "internalType": "bytes32",
          "name": "_userName",
          "type": "bytes32"
        }
      ],
      "name": "removeKYCRequest",
      "outputs": [
        {
          "internalType": "uint8",
          "name": "",
          "type": "uint8"
        }
      ],
      "stateMutability": "nonpayable",
      "type": "function"
    },
    {
      "inputs": [
        {
          "internalType": "bytes32",
          "name": "_userName",
          "type": "bytes32"
        }
      ],
      "name": "viewCustomer",
      "outputs": [
        {
          "internalType": "bytes32",
          "name": "",
          "type": "bytes32"
        }
      ],
      "stateMutability": "view",
      "type": "function",
      "constant": true
    },
    {
      "inputs": [
        {
          "internalType": "bytes32",
          "name": "_userName",
          "type": "bytes32"
        }
      ],
      "name": "upvoteCustomer",
      "outputs": [
        {
          "internalType": "uint8",
          "name": "",
          "type": "uint8"
        }
      ],
      "stateMutability": "nonpayable",
      "type": "function"
    },
    {
      "inputs": [
        {
          "internalType": "bytes32",
          "name": "_userName",
          "type": "bytes32"
        }
      ],
      "name": "downvoteCustomer",
      "outputs": [
        {
          "internalType": "uint8",
          "name": "",
          "type": "uint8"
        }
      ],
      "stateMutability": "nonpayable",
      "type": "function"
    },
    {
      "inputs": [
        {
          "internalType": "bytes32",
          "name": "userName",
          "type": "bytes32"
        },
        {
          "internalType": "string",
          "name": "_customerData",
          "type": "string"
        },
        {
          "internalType": "address",
          "name": "_bank",
          "type": "address"
        }
      ],
      "name": "modifyCustomer",
      "outputs": [],
      "stateMutability": "nonpayable",
      "type": "function"
    },
    {
      "inputs": [
        {
          "internalType": "address",
          "name": "bankAddress",
          "type": "address"
        }
      ],
      "name": "getbankComplaint",
      "outputs": [
        {
          "internalType": "uint256",
          "name": "",
          "type": "uint256"
        }
      ],
      "stateMutability": "view",
      "type": "function",
      "constant": true
    },
    {
      "inputs": [
        {
          "internalType": "address",
          "name": "bankAddress",
          "type": "address"
        }
      ],
      "name": "viewBankDetail",
      "outputs": [
        {
          "internalType": "string",
          "name": "",
          "type": "string"
        },
        {
          "internalType": "uint256",
          "name": "",
          "type": "uint256"
        },
        {
          "internalType": "uint256",
          "name": "",
          "type": "uint256"
        },
        {
          "internalType": "string",
          "name": "",
          "type": "string"
        }
      ],
      "stateMutability": "view",
      "type": "function",
      "constant": true
    },
    {
      "inputs": [
        {
          "internalType": "address",
          "name": "_bank",
          "type": "address"
        }
      ],
      "name": "reportBank",
      "outputs": [],
      "stateMutability": "nonpayable",
      "type": "function"
    },
    {
      "inputs": [
        {
          "internalType": "string",
          "name": "bankName",
          "type": "string"
        },
        {
          "internalType": "address",
          "name": "bankAddress",
          "type": "address"
        },
        {
          "internalType": "string",
          "name": "bankRegistration",
          "type": "string"
        }
      ],
      "name": "addBank",
      "outputs": [
        {
          "internalType": "string",
          "name": "",
          "type": "string"
        }
      ],
      "stateMutability": "nonpayable",
      "type": "function"
    },
    {
      "inputs": [
        {
          "internalType": "address",
          "name": "bankAddress",
          "type": "address"
        }
      ],
      "name": "removeBank",
      "outputs": [
        {
          "internalType": "string",
          "name": "",
          "type": "string"
        }
      ],
      "stateMutability": "nonpayable",
      "type": "function"
    },
    {
      "inputs": [
        {
          "internalType": "address",
          "name": "bankAddress",
          "type": "address"
        },
        {
          "internalType": "bool",
          "name": "_isAllowedtoVote",
          "type": "bool"
        }
      ],
      "name": "updateBankData",
      "outputs": [],
      "stateMutability": "nonpayable",
      "type": "function"
    }
  ],
  "bytecode": "0x608060405234801561001057600080fd5b50336000806101000a81548173ffffffffffffffffffffffffffffffffffffffff021916908373ffffffffffffffffffffffffffffffffffffffff160217905550612f4b806100606000396000f3fe608060405234801561001057600080fd5b50600436106100cf5760003560e01c806362b77d2c1161008c578063ccfa8e7111610066578063ccfa8e7114610248578063e226ce3b14610278578063f523d70f146102ab578063fe810d2e146102db576100cf565b806362b77d2c146101cc5780639649650c146101fc578063a5a498001461022c576100cf565b806301519e88146100d45780632311768c1461010457806329ea009f146101205780632baa004e1461013c578063308822191461016c5780634bbfcc661461019c575b600080fd5b6100ee60048036038101906100e99190612236565b61030b565b6040516100fb919061273b565b60405180910390f35b61011e600480360381019061011991906121c9565b610659565b005b61013a60048036038101906101359190612292565b610815565b005b61015660048036038101906101519190612209565b61090a565b604051610163919061273b565b60405180910390f35b61018660048036038101906101819190612209565b610acb565b604051610193919061273b565b60405180910390f35b6101b660048036038101906101b19190612236565b610e76565b6040516101c3919061273b565b60405180910390f35b6101e660048036038101906101e1919061219c565b611072565b6040516101f39190612720565b60405180910390f35b6102166004803603810190610211919061219c565b6110be565b604051610223919061256b565b60405180910390f35b6102466004803603810190610241919061219c565b6113c5565b005b610262600480360381019061025d9190612301565b6115d5565b60405161026f919061256b565b60405180910390f35b610292600480360381019061028d919061219c565b61197a565b6040516102a2949392919061258d565b60405180910390f35b6102c560048036038101906102c09190612209565b611bb2565b6040516102d2919061273b565b60405180910390f35b6102f560048036038101906102f09190612209565b611f5d565b6040516103029190612550565b60405180910390f35b600080600090505b60068054905081101561064d576006818154811061033457610333612b23565b5b9060005260206000200160009054906101000a900473ffffffffffffffffffffffffffffffffffffffff1673ffffffffffffffffffffffffffffffffffffffff163373ffffffffffffffffffffffffffffffffffffffff16141561063a573373ffffffffffffffffffffffffffffffffffffffff166007600086815260200190815260200160002060020160009054906101000a900473ffffffffffffffffffffffffffffffffffffffff1673ffffffffffffffffffffffffffffffffffffffff161415610437576040517f08c379a000000000000000000000000000000000000000000000000000000000815260040161042e906126c0565b60405180910390fd5b82600760008681526020019081526020016000206001019080519060200190610461929190611f7d565b50836007600086815260200190815260200160002060000181905550336007600086815260200190815260200160002060020160006101000a81548173ffffffffffffffffffffffffffffffffffffffff021916908373ffffffffffffffffffffffffffffffffffffffff16021790555060016007600086815260200190815260200160002060020160146101000a81548160ff021916908315150217905550600560003373ffffffffffffffffffffffffffffffffffffffff1673ffffffffffffffffffffffffffffffffffffffff168152602001908152602001600020600301600081548092919061055490612a23565b91905055506032600560003373ffffffffffffffffffffffffffffffffffffffff1673ffffffffffffffffffffffffffffffffffffffff16815260200190815260200160002060020154116105d75760006007600086815260200190815260200160002060020160146101000a81548160ff021916908315150217905550610607565b60016007600086815260200190815260200160002060020160146101000a81548160ff0219169083151502179055505b60088490806001815401808255809150506001900390600052602060002001600090919091909150556001915050610653565b808061064590612a23565b915050610313565b50600090505b92915050565b3373ffffffffffffffffffffffffffffffffffffffff1660008054906101000a900473ffffffffffffffffffffffffffffffffffffffff1673ffffffffffffffffffffffffffffffffffffffff16146106e7576040517f08c379a00000000000000000000000000000000000000000000000000000000081526004016106de906126e0565b60405180910390fd5b8173ffffffffffffffffffffffffffffffffffffffff16600560008473ffffffffffffffffffffffffffffffffffffffff1673ffffffffffffffffffffffffffffffffffffffff16815260200190815260200160002060010160009054906101000a900473ffffffffffffffffffffffffffffffffffffffff1673ffffffffffffffffffffffffffffffffffffffff16146107b7576040517f08c379a00000000000000000000000000000000000000000000000000000000081526004016107ae90612680565b60405180910390fd5b80600560008473ffffffffffffffffffffffffffffffffffffffff1673ffffffffffffffffffffffffffffffffffffffff16815260200190815260200160002060060160006101000a81548160ff0219169083151502179055505050565b600073ffffffffffffffffffffffffffffffffffffffff166001600085815260200190815260200160002060030160029054906101000a900473ffffffffffffffffffffffffffffffffffffffff1673ffffffffffffffffffffffffffffffffffffffff16141561088557600080fd5b816001600085815260200190815260200160002060010190805190602001906108af929190611f7d565b50806001600085815260200190815260200160002060030160026101000a81548173ffffffffffffffffffffffffffffffffffffffff021916908373ffffffffffffffffffffffffffffffffffffffff160217905550505050565b600080600090506000600880549050905083600760008681526020019081526020016000206000015414610973576040517f08c379a000000000000000000000000000000000000000000000000000000000815260040161096a90612600565b60405180910390fd5b600091505b808260ff161015610abf578360088360ff168154811061099b5761099a612b23565b5b90600052602060002001541415610aac57600760008581526020019081526020016000206000808201600090556001820160006109d89190612003565b6002820160006101000a81549073ffffffffffffffffffffffffffffffffffffffff02191690556002820160146101000a81549060ff021916905550506000600183610a24919061281e565b60ff1690505b81811015610a925760088181548110610a4657610a45612b23565b5b90600052602060002001546008600183610a6091906128c1565b81548110610a7157610a70612b23565b5b90600052602060002001819055508080610a8a90612a23565b915050610a2a565b508080610a9e90612996565b915050600192505050610ac6565b8180610ab790612a6c565b925050610978565b6000925050505b919050565b600080600090505b600280549050811015610e6b578260028281548110610af557610af4612b23565b5b90600052602060002001541415610e585760006009600085815260200190815260200160002060003373ffffffffffffffffffffffffffffffffffffffff1673ffffffffffffffffffffffffffffffffffffffff1681526020019081526020016000205414610b99576040517f08c379a0000000000000000000000000000000000000000000000000000000008152600401610b9090612700565b60405180910390fd5b60016009600085815260200190815260200160002060003373ffffffffffffffffffffffffffffffffffffffff1673ffffffffffffffffffffffffffffffffffffffff1681526020019081526020016000208190555060016000848152602001908152602001600020600301600081819054906101000a900460ff1680929190610c2290612a6c565b91906101000a81548160ff021916908360ff1602179055505060068054905060646001600086815260200190815260200160002060030160009054906101000a900460ff16610c719190612886565b60ff16610c7e9190612855565b6001600085815260200190815260200160002060020181905550603260016000858152602001908152602001600020600201541115610e4e578260036000858152602001908152602001600020600001819055506001600084815260200190815260200160002060010160036000858152602001908152602001600020600101908054610d0a906129c0565b610d15929190612043565b50600160008481526020019081526020016000206002015460036000858152602001908152602001600020600201819055506001600084815260200190815260200160002060030160009054906101000a900460ff166003600085815260200190815260200160002060030160006101000a81548160ff021916908360ff1602179055506001600084815260200190815260200160002060030160029054906101000a900473ffffffffffffffffffffffffffffffffffffffff166003600085815260200190815260200160002060030160026101000a81548173ffffffffffffffffffffffffffffffffffffffff021916908373ffffffffffffffffffffffffffffffffffffffff16021790555060048390806001815401808255809150506001900390600052602060002001600090919091909150555b6001915050610e71565b8080610e6390612a23565b915050610ad3565b50600090505b919050565b600080600090505b6006805490508110156110665760068181548110610e9f57610e9e612b23565b5b9060005260206000200160009054906101000a900473ffffffffffffffffffffffffffffffffffffffff1673ffffffffffffffffffffffffffffffffffffffff163373ffffffffffffffffffffffffffffffffffffffff1614156110535783600160008681526020019081526020016000206000015414610f55576040517f08c379a0000000000000000000000000000000000000000000000000000000008152600401610f4c906125e0565b60405180910390fd5b83600160008681526020019081526020016000206000018190555082600160008681526020019081526020016000206001019080519060200190610f9a929190611f7d565b50336001600086815260200190815260200160002060030160026101000a81548173ffffffffffffffffffffffffffffffffffffffff021916908373ffffffffffffffffffffffffffffffffffffffff16021790555060006001600086815260200190815260200160002060030160006101000a81548160ff021916908360ff1602179055506002849080600181540180825580915050600190039060005260206000200160009091909190915055600191505061106c565b808061105e90612a23565b915050610e7e565b50600090505b92915050565b6000600560008373ffffffffffffffffffffffffffffffffffffffff1673ffffffffffffffffffffffffffffffffffffffff168152602001908152602001600020600501549050919050565b606060008054906101000a900473ffffffffffffffffffffffffffffffffffffffff1673ffffffffffffffffffffffffffffffffffffffff163373ffffffffffffffffffffffffffffffffffffffff161461114e576040517f08c379a000000000000000000000000000000000000000000000000000000000815260040161114590612640565b60405180910390fd5b6000600680549050905060005b818110156113a2578373ffffffffffffffffffffffffffffffffffffffff166006828154811061118e5761118d612b23565b5b9060005260206000200160009054906101000a900473ffffffffffffffffffffffffffffffffffffffff1673ffffffffffffffffffffffffffffffffffffffff16141561138f57600560008573ffffffffffffffffffffffffffffffffffffffff1673ffffffffffffffffffffffffffffffffffffffff168152602001908152602001600020600080820160006112259190612003565b6001820160006101000a81549073ffffffffffffffffffffffffffffffffffffffff02191690556002820160009055600382016000905560048201600061126c9190612003565b60058201600090556006820160006101000a81549060ff02191690555050600060018261129991906127c8565b90505b8281101561135e57600681815481106112b8576112b7612b23565b5b9060005260206000200160009054906101000a900473ffffffffffffffffffffffffffffffffffffffff1660066001836112f291906128c1565b8154811061130357611302612b23565b5b9060005260206000200160006101000a81548173ffffffffffffffffffffffffffffffffffffffff021916908373ffffffffffffffffffffffffffffffffffffffff160217905550808061135690612a23565b91505061129c565b50818061136a90612996565b925050604051806060016040528060318152602001612e9060319139925050506113c0565b808061139a90612a23565b91505061115b565b506040518060600160405280602d8152602001612ec1602d91399150505b919050565b3373ffffffffffffffffffffffffffffffffffffffff16600560003373ffffffffffffffffffffffffffffffffffffffff1673ffffffffffffffffffffffffffffffffffffffff16815260200190815260200160002060010160009054906101000a900473ffffffffffffffffffffffffffffffffffffffff1673ffffffffffffffffffffffffffffffffffffffff1614611495576040517f08c379a000000000000000000000000000000000000000000000000000000000815260040161148c90612660565b60405180910390fd5b6001600560008373ffffffffffffffffffffffffffffffffffffffff1673ffffffffffffffffffffffffffffffffffffffff168152602001908152602001600020600501546114e491906127c8565b600560008373ffffffffffffffffffffffffffffffffffffffff1673ffffffffffffffffffffffffffffffffffffffff168152602001908152602001600020600501819055506103e8600560008373ffffffffffffffffffffffffffffffffffffffff1673ffffffffffffffffffffffffffffffffffffffff1681526020019081526020016000206005015411156115d2576000600560008373ffffffffffffffffffffffffffffffffffffffff1673ffffffffffffffffffffffffffffffffffffffff16815260200190815260200160002060060160006101000a81548160ff0219169083151502179055505b50565b606060008054906101000a900473ffffffffffffffffffffffffffffffffffffffff1673ffffffffffffffffffffffffffffffffffffffff163373ffffffffffffffffffffffffffffffffffffffff1614611665576040517f08c379a000000000000000000000000000000000000000000000000000000000815260040161165c90612640565b60405180910390fd5b600073ffffffffffffffffffffffffffffffffffffffff16600560008573ffffffffffffffffffffffffffffffffffffffff1673ffffffffffffffffffffffffffffffffffffffff16815260200190815260200160002060010160009054906101000a900473ffffffffffffffffffffffffffffffffffffffff1673ffffffffffffffffffffffffffffffffffffffff1614611736576040517f08c379a000000000000000000000000000000000000000000000000000000000815260040161172d90612620565b60405180910390fd5b83600560008573ffffffffffffffffffffffffffffffffffffffff1673ffffffffffffffffffffffffffffffffffffffff168152602001908152602001600020600001908051906020019061178c929190611f7d565b5082600560008573ffffffffffffffffffffffffffffffffffffffff1673ffffffffffffffffffffffffffffffffffffffff16815260200190815260200160002060010160006101000a81548173ffffffffffffffffffffffffffffffffffffffff021916908373ffffffffffffffffffffffffffffffffffffffff1602179055506000600560008573ffffffffffffffffffffffffffffffffffffffff1673ffffffffffffffffffffffffffffffffffffffff168152602001908152602001600020600201819055506000600560008573ffffffffffffffffffffffffffffffffffffffff1673ffffffffffffffffffffffffffffffffffffffff1681526020019081526020016000206003018190555081600560008573ffffffffffffffffffffffffffffffffffffffff1673ffffffffffffffffffffffffffffffffffffffff16815260200190815260200160002060040190805190602001906118f4929190611f7d565b506006839080600181540180825580915050600190039060005260206000200160009091909190916101000a81548173ffffffffffffffffffffffffffffffffffffffff021916908373ffffffffffffffffffffffffffffffffffffffff160217905550604051806060016040528060288152602001612eee6028913990509392505050565b60606000806060600560008673ffffffffffffffffffffffffffffffffffffffff1673ffffffffffffffffffffffffffffffffffffffff168152602001908152602001600020600001600560008773ffffffffffffffffffffffffffffffffffffffff1673ffffffffffffffffffffffffffffffffffffffff16815260200190815260200160002060030154600560008873ffffffffffffffffffffffffffffffffffffffff1673ffffffffffffffffffffffffffffffffffffffff16815260200190815260200160002060050154600560008973ffffffffffffffffffffffffffffffffffffffff1673ffffffffffffffffffffffffffffffffffffffff168152602001908152602001600020600401838054611a97906129c0565b80601f0160208091040260200160405190810160405280929190818152602001828054611ac3906129c0565b8015611b105780601f10611ae557610100808354040283529160200191611b10565b820191906000526020600020905b815481529060010190602001808311611af357829003601f168201915b50505050509350808054611b23906129c0565b80601f0160208091040260200160405190810160405280929190818152602001828054611b4f906129c0565b8015611b9c5780601f10611b7157610100808354040283529160200191611b9c565b820191906000526020600020905b815481529060010190602001808311611b7f57829003601f168201915b5050505050905093509350935093509193509193565b600080600090505b600280549050811015611f52578260028281548110611bdc57611bdb612b23565b5b90600052602060002001541415611f3f576000600a600085815260200190815260200160002060003373ffffffffffffffffffffffffffffffffffffffff1673ffffffffffffffffffffffffffffffffffffffff1681526020019081526020016000205414611c80576040517f08c379a0000000000000000000000000000000000000000000000000000000008152600401611c77906126a0565b60405180910390fd5b6001600a600085815260200190815260200160002060003373ffffffffffffffffffffffffffffffffffffffff1673ffffffffffffffffffffffffffffffffffffffff1681526020019081526020016000208190555060016000848152602001908152602001600020600301600181819054906101000a900460ff1680929190611d0990612a6c565b91906101000a81548160ff021916908360ff1602179055505060068054905060646001600086815260200190815260200160002060030160019054906101000a900460ff16611d589190612886565b60ff16611d659190612855565b6001600085815260200190815260200160002060020181905550603260016000858152602001908152602001600020600201541115611f35578260036000858152602001908152602001600020600001819055506001600084815260200190815260200160002060010160036000858152602001908152602001600020600101908054611df1906129c0565b611dfc929190612043565b50600160008481526020019081526020016000206002015460036000858152602001908152602001600020600201819055506001600084815260200190815260200160002060030160019054906101000a900460ff166003600085815260200190815260200160002060030160016101000a81548160ff021916908360ff1602179055506001600084815260200190815260200160002060030160029054906101000a900473ffffffffffffffffffffffffffffffffffffffff166003600085815260200190815260200160002060030160026101000a81548173ffffffffffffffffffffffffffffffffffffffff021916908373ffffffffffffffffffffffffffffffffffffffff16021790555060048390806001815401808255809150506001900390600052602060002001600090919091909150555b6001915050611f58565b8080611f4a90612a23565b915050611bba565b50600090505b919050565b600060016000838152602001908152602001600020600001549050919050565b828054611f89906129c0565b90600052602060002090601f016020900481019282611fab5760008555611ff2565b82601f10611fc457805160ff1916838001178555611ff2565b82800160010185558215611ff2579182015b82811115611ff1578251825591602001919060010190611fd6565b5b509050611fff91906120d0565b5090565b50805461200f906129c0565b6000825580601f106120215750612040565b601f01602090049060005260206000209081019061203f91906120d0565b5b50565b82805461204f906129c0565b90600052602060002090601f01602090048101928261207157600085556120bf565b82601f1061208257805485556120bf565b828001600101855582156120bf57600052602060002091601f016020900482015b828111156120be5782548255916001019190600101906120a3565b5b5090506120cc91906120d0565b5090565b5b808211156120e95760008160009055506001016120d1565b5090565b60006121006120fb8461277b565b612756565b90508281526020810184848401111561211c5761211b612b86565b5b612127848285612954565b509392505050565b60008135905061213e81612e4a565b92915050565b60008135905061215381612e61565b92915050565b60008135905061216881612e78565b92915050565b600082601f83011261218357612182612b81565b5b81356121938482602086016120ed565b91505092915050565b6000602082840312156121b2576121b1612b90565b5b60006121c08482850161212f565b91505092915050565b600080604083850312156121e0576121df612b90565b5b60006121ee8582860161212f565b92505060206121ff85828601612144565b9150509250929050565b60006020828403121561221f5761221e612b90565b5b600061222d84828501612159565b91505092915050565b6000806040838503121561224d5761224c612b90565b5b600061225b85828601612159565b925050602083013567ffffffffffffffff81111561227c5761227b612b8b565b5b6122888582860161216e565b9150509250929050565b6000806000606084860312156122ab576122aa612b90565b5b60006122b986828701612159565b935050602084013567ffffffffffffffff8111156122da576122d9612b8b565b5b6122e68682870161216e565b92505060406122f78682870161212f565b9150509250925092565b60008060006060848603121561231a57612319612b90565b5b600084013567ffffffffffffffff81111561233857612337612b8b565b5b6123448682870161216e565b93505060206123558682870161212f565b925050604084013567ffffffffffffffff81111561237657612375612b8b565b5b6123828682870161216e565b9150509250925092565b61239581612913565b82525050565b60006123a6826127ac565b6123b081856127b7565b93506123c0818560208601612963565b6123c981612b95565b840191505092915050565b60006123e16005836127b7565b91506123ec82612ba6565b602082019050919050565b60006124046032836127b7565b915061240f82612bcf565b604082019050919050565b60006124276030836127b7565b915061243282612c1e565b604082019050919050565b600061244a6014836127b7565b915061245582612c6d565b602082019050919050565b600061246d6029836127b7565b915061247882612c96565b604082019050919050565b60006124906026836127b7565b915061249b82612ce5565b604082019050919050565b60006124b3602e836127b7565b91506124be82612d34565b604082019050919050565b60006124d6603e836127b7565b91506124e182612d83565b604082019050919050565b60006124f9601f836127b7565b915061250482612dd2565b602082019050919050565b600061251c602c836127b7565b915061252782612dfb565b604082019050919050565b61253b8161293d565b82525050565b61254a81612947565b82525050565b6000602082019050612565600083018461238c565b92915050565b60006020820190508181036000830152612585818461239b565b905092915050565b600060808201905081810360008301526125a7818761239b565b90506125b66020830186612532565b6125c36040830185612532565b81810360608301526125d5818461239b565b905095945050505050565b600060208201905081810360008301526125f9816123d4565b9050919050565b60006020820190508181036000830152612619816123f7565b9050919050565b600060208201905081810360008301526126398161241a565b9050919050565b600060208201905081810360008301526126598161243d565b9050919050565b6000602082019050818103600083015261267981612460565b9050919050565b6000602082019050818103600083015261269981612483565b9050919050565b600060208201905081810360008301526126b9816124a6565b9050919050565b600060208201905081810360008301526126d9816124c9565b9050919050565b600060208201905081810360008301526126f9816124ec565b9050919050565b600060208201905081810360008301526127198161250f565b9050919050565b60006020820190506127356000830184612532565b92915050565b60006020820190506127506000830184612541565b92915050565b6000612760612771565b905061276c82826129f2565b919050565b6000604051905090565b600067ffffffffffffffff82111561279657612795612b52565b5b61279f82612b95565b9050602081019050919050565b600081519050919050565b600082825260208201905092915050565b60006127d38261293d565b91506127de8361293d565b9250827fffffffffffffffffffffffffffffffffffffffffffffffffffffffffffffffff0382111561281357612812612a96565b5b828201905092915050565b600061282982612947565b915061283483612947565b92508260ff0382111561284a57612849612a96565b5b828201905092915050565b60006128608261293d565b915061286b8361293d565b92508261287b5761287a612ac5565b5b828204905092915050565b600061289182612947565b915061289c83612947565b92508160ff04831182151516156128b6576128b5612a96565b5b828202905092915050565b60006128cc8261293d565b91506128d78361293d565b9250828210156128ea576128e9612a96565b5b828203905092915050565b60006129008261291d565b9050919050565b60008115159050919050565b6000819050919050565b600073ffffffffffffffffffffffffffffffffffffffff82169050919050565b6000819050919050565b600060ff82169050919050565b82818337600083830152505050565b60005b83811015612981578082015181840152602081019050612966565b83811115612990576000848401525b50505050565b60006129a18261293d565b915060008214156129b5576129b4612a96565b5b600182039050919050565b600060028204905060018216806129d857607f821691505b602082108114156129ec576129eb612af4565b5b50919050565b6129fb82612b95565b810181811067ffffffffffffffff82111715612a1a57612a19612b52565b5b80604052505050565b6000612a2e8261293d565b91507fffffffffffffffffffffffffffffffffffffffffffffffffffffffffffffffff821415612a6157612a60612a96565b5b600182019050919050565b6000612a7782612947565b915060ff821415612a8b57612a8a612a96565b5b600182019050919050565b7f4e487b7100000000000000000000000000000000000000000000000000000000600052601160045260246000fd5b7f4e487b7100000000000000000000000000000000000000000000000000000000600052601260045260246000fd5b7f4e487b7100000000000000000000000000000000000000000000000000000000600052602260045260246000fd5b7f4e487b7100000000000000000000000000000000000000000000000000000000600052603260045260246000fd5b7f4e487b7100000000000000000000000000000000000000000000000000000000600052604160045260246000fd5b600080fd5b600080fd5b600080fd5b600080fd5b6000601f19601f8301169050919050565b7f6572726f72000000000000000000000000000000000000000000000000000000600082015250565b7f506c6561736520656e7465722076616c696420557365724e616d6520616e642060008201527f437573746f6d6572204461746120486173680000000000000000000000000000602082015250565b7f546869732062616e6b20697320616c726561647920616464656420746f20746860008201527f652073616d727420636f6e747261637400000000000000000000000000000000602082015250565b7f596f7520617265206e6f7420616e2061646d696e000000000000000000000000600082015250565b7f596f7520617265206e6f7420617574686f726973656420746f207265706f727460008201527f207468652062616e6b0000000000000000000000000000000000000000000000602082015250565b7f42616e6b206973206e6f7420617661696c61626c6520696e207468652062616e60008201527f6b206c6973740000000000000000000000000000000000000000000000000000602082015250565b7f546869732062616e6b206861766520616c726561647920646f776e766f74656460008201527f207468697320637573746f6d6572000000000000000000000000000000000000602082015250565b7f54686973207573657220616c7265616479206861732061204b5943207265717560008201527f65737420776974682073616d65206461746120696e2070726f636573732e0000602082015250565b7f596f7520617265206e6f7420616c6c6f77656420746f204164642042616e6b00600082015250565b7f546869732062616e6b206861766520616c7265616479207570766f746564207460008201527f68697320637573746f6d65720000000000000000000000000000000000000000602082015250565b612e53816128f5565b8114612e5e57600080fd5b50565b612e6a81612907565b8114612e7557600080fd5b50565b612e8181612913565b8114612e8c57600080fd5b5056fe7375636365737366756c2072656d6f76616c206f66207468652062616e6b2066726f6d2074686520636f6e74726163742e5468652062616e6b20697320616c72656164792072656d6f7665642066726f6d2074686520636f6e74726163747375636365737366756c20656e747279206f662062616e6b20746f2074686520636f6e7472616374a2646970667358221220c72570c9724529bfd8152246a84fb15c02567e46ef257ccc006e473cb1de5ed264736f6c63430008070033",
  "immutableReferences": {},
  "source": "pragma solidity ^0.8.7;\n \ncontract KYC {\n    address admin;\n \n    /*\n    Struct for a customer\n     */\n    struct Customer {\n        bytes32 userName; //unique\n        string data_hash; //unique\n        uint256 rating;//\n        //bool kycStatus;\n        uint8 upvote; //need to add downvotes,kyc status\n        uint8 downvote;\n        address bank;\n    }\n \n    /*\n    Struct for a Bank\n     */\n    struct Bank {\n        string bankName;\n        address ethAddress; //unique\n        uint256 rating;\n        uint256 kyc_count;\n        string regNumber;//unique\n        uint256 complaintsReported;\n        bool isAllowedtoVote;\n \n \n    }\n \n    /*\n    Struct for a KYC Request\n     */\n    struct KYCRequest {\n        bytes32 userName;\n        string data_hash; //unique\n        address bank;\n        bool isAllowed;\n    }\n \n    /*\n    Mapping a customer's username to the Customer struct\n    We also keep an array of all keys of the mapping to be able to loop through them when required.\n     */\n    mapping(bytes32 => Customer) customers;\n    bytes32[] customerNames;\n \n    /*\n    Final customer list, mapping of customer's username to the customer Struct\n    */\n    mapping(bytes32 => Customer) final_customers;\n    bytes32[] final_customerNames;\n \n    /*\n    Mapping a bank's address to the Bank Struct\n    We also keep an array of all keys of the mapping to be able to loop through them when required.\n     */\n    mapping(address => Bank) banks;\n    address[] bankAddresses;\n \n    /*\n    Mapping a customer's Data Hash to KYC request captured for that customer.\n    This mapping is used to keep track of every kycRequest initiated for every customer by a bank.\n     */\n    mapping(bytes32 => KYCRequest) kycRequests;\n    bytes32[] customerDataList;\n \n    /*\n    Mapping a customer's user name with a bank's address\n    This mapping is used to keep track of every upvote given by a bank to a customer\n     */\n    mapping(bytes32 => mapping(address => uint256)) upvotes;\n    mapping(bytes32 => mapping(address => uint256)) downvotes;\n \n    /**\n     * Constructor of the contract.\n     * We save the contract's admin as the account which deployed this contract.\n     */\n    constructor() public {\n        admin = msg.sender;\n    }\n \n    /**\n     * Record a new KYC request on behalf of a customer\n     * The sender of message call is the bank itself\n     * @param  {string} _userName The name of the customer for whom KYC is to be done\n     * @param  {address} _bankEthAddress The ethAddress of the bank issuing this request\n     * @return {bool}        True if this function execution was successful\n     */\n    function addKycRequest(bytes32 _userName, string memory _customerData)\n        public\n        returns (uint8)\n    {\n        // Check that the user's KYC has not been done before, the Bank is a valid bank and it is allowed to perform KYC.\n \n        //checking if the bank is a valid Bank\n \n        for (uint256 i = 0; i < bankAddresses.length; i++) {\n            if (msg.sender == bankAddresses[i]) {\n                //checking if the customer KYC request alreay exist\n                require(\n                    !(kycRequests[_userName].bank == msg.sender),\n                    \"This user already has a KYC request with same data in process.\"\n                );\n                kycRequests[_userName].data_hash = _customerData;\n                kycRequests[_userName].userName = _userName;\n                kycRequests[_userName].bank = msg.sender;\n                kycRequests[_userName].isAllowed = true;\n                //incrementing the kyc_count for the bank\n                banks[msg.sender].kyc_count++;\n \n                //checking if the BANK is a trusted bank to add KYC requests\n                if (banks[msg.sender].rating <= 50) {\n                    kycRequests[_userName].isAllowed = false;\n                } else {\n                    kycRequests[_userName].isAllowed = true;\n                }\n                customerDataList.push(_userName);\n                return 1;\n            }\n        }\n        return 0; // 0 is returned in case of failure\n    }\n  /**\n     * Add a new customer\n     * @param {string} _userName Name of the customer to be added\n     * @param {string} _hash Hash of the customer's ID submitted for KYC\n     */\n    function addCustomer(bytes32 _userName, string memory _customerData)\n        public\n        returns (uint8)\n    {\n        //checking if the bank is a vaild Bank\n        for (uint256 i = 0; i < bankAddresses.length; i++) {\n            if (msg.sender == bankAddresses[i]) {\n \n                require(customers[_userName].userName == _userName, \"error\");\n                customers[_userName].userName = _userName;\n                customers[_userName].data_hash = _customerData;\n                customers[_userName].bank = msg.sender;\n                customers[_userName].upvote = 0;\n                customerNames.push(_userName);\n                return 1;\n \n                //checking if the customerdata hash is valid\n                // for (uint256 k = 0; k < customerDataList.length; k++) {\n                //     if (customerDataList[k] == _customerData) {\n                //         require(\n                //             customers[_userName].bank == address(0),\n                //             \"This customer is already present, modifyCustomer to edit the customer data\"\n                //         );\n                //         require(\n                //             kycRequests[_userName].isAllowed == true,\n                //             \"isAllowed is false, bank is not trusted to perfrom the transaction\"\n                //         );\n                //         customers[_userName].userName = _userName;\n                //         customers[_userName].data_hash = _customerData;\n                //         customers[_userName].bank = msg.sender;\n                //         customers[_userName].upvote = 0;\n                //         customerNames.push(_userName);\n                //         return 1;\n                //     }\n                // }\n            }\n        }\n        return 0; // 0 is returned in case of failure\n    }\n \n \n /**\n     * Remove KYC request\n     * @param  {string} _userName Name of the customer\n     * @return {uint8}         A 0 indicates failure, 1 indicates success\n     */\n    function removeKYCRequest(\n        bytes32 _userName\n       // string memory customerData,\n    ) public returns (uint8) {\n        uint8 i = 0;\n        uint256 length = customerDataList.length;\n        //checking if the provided username and customer Data are mapped in kycRequests\n        require(kycRequests[_userName].userName == _userName,\"Please enter valid UserName and Customer Data Hash\");\n \n        //looping through customerDataList and then deleting the kycRequests and deleting the customer data hash from customerDataList array\n        for (i = 0; i < length; i++) {\n            if (customerDataList[i] == _userName) {\n                delete kycRequests[_userName];\n                for (uint256 j = i + 1; j < length; j++) {\n                    customerDataList[j - 1] = customerDataList[j];\n                }\n                length--;\n                return 1;\n            }\n        }\n        return 0; // 0 is returned if no request with the input username is found.\n    }\n/**\n     * View customer information\n     * @param  {public} _userName Name of the customer\n     * @return {Customer}         The customer struct as an object\n     */\n    function viewCustomer(bytes32 _userName)\n        public\n        view\n        returns (bytes32)\n    {\n        //looping through customerNames to check if the _userName passes is valid\n        return customers[_userName].userName;\n        //for (uint256 i = 0; i < customerNames.length; i++) {\n            //if (stringsEquals(customerNames[i], _userName)) {\n                //looping through passwordSet array, which is an string[] stores USERNAME's of user whose password is set\n \n \n           // }\n        //}\n        //passwordStore is a mapping of username=>password, if given username and password match we return customer data hash\n        //else error is thrown informing user that password provided didn't match\n \n \n    }\n \n /**\n     * Add upvote to provide ratings on customers\n     * Add a new upvote from a bank\n     * @param {public} _userName Name of the customer to be upvoted\n     */\n    function upvoteCustomer(bytes32 _userName) public returns (uint8) {\n        //checking if the customer exist in the customerNames\n        for (uint256 i = 0; i < customerNames.length; i++) {\n            if (customerNames[i] == _userName) {\n                require(\n                    upvotes[_userName][msg.sender] == 0,\n                    \"This bank have already upvoted this customer\"\n                );\n                upvotes[_userName][msg.sender] = 1;\n                customers[_userName].upvote++;\n \n                //updating the rating of the customer\n                customers[_userName].rating =\n                    (customers[_userName].upvote * 100) /\n                    bankAddresses.length;\n                //if the customer rating is higher then also adding the customer to the final_customers list.\n                if (customers[_userName].rating > 50) {\n                    final_customers[_userName].userName = _userName;\n                    final_customers[_userName].data_hash = customers[_userName]\n                        .data_hash;\n                    final_customers[_userName].rating = customers[_userName]\n                        .rating;\n                    final_customers[_userName].upvote = customers[_userName]\n                        .upvote;\n                    final_customers[_userName].bank = customers[_userName].bank;\n                    //final_customerNames is array to itterate over customers\n                    final_customerNames.push(_userName);\n                }\n \n                return 1;\n            }\n        }\n        return 0;\n    }\n \n \n    /**\n     * Add Downvote to provide ratings on customers\n     * Add a new Downvote from a bank\n     * @param {public} _userName Name of the customer to be upvoted\n     */\n    function downvoteCustomer(bytes32 _userName) public returns (uint8) {\n        //checking if the customer exist in the customerNames\n        for (uint256 i = 0; i < customerNames.length; i++) {\n            if (customerNames[i] == _userName) {\n                require(\n                    downvotes[_userName][msg.sender] == 0,\n                    \"This bank have already downvoted this customer\"\n                );\n                downvotes[_userName][msg.sender] = 1;\n                customers[_userName].downvote++;\n \n                //updating the rating of the customer\n                customers[_userName].rating =\n                    (customers[_userName].downvote * 100) /\n                    bankAddresses.length;\n                //if the customer rating is higher then also adding the customer to the final_customers list.\n                if (customers[_userName].rating > 50) {\n                    final_customers[_userName].userName = _userName;\n                    final_customers[_userName].data_hash = customers[_userName]\n                        .data_hash;\n                    final_customers[_userName].rating = customers[_userName]\n                        .rating;\n                    final_customers[_userName].downvote = customers[_userName]\n                        .downvote;\n                    final_customers[_userName].bank = customers[_userName].bank;\n                    //final_customerNames is array to itterate over customers\n                    final_customerNames.push(_userName);\n                }\n \n                return 1;\n            }\n        }\n        return 0;\n    }\n \n \n \n \n    // update customerData\n    function modifyCustomer(bytes32 userName, string memory _customerData, address _bank) public{\n        require(customers[userName].bank != address(0) );\n        customers[userName].data_hash = _customerData;\n        customers[userName].bank = _bank;\n \n \n    }\n \n    //get bank complaint\n \n    function getbankComplaint(address bankAddress )\n        public\n        view\n        returns (uint256)\n    {\n        //looping through customerNames to check if the _userName passes is valid\n        return banks[bankAddress].complaintsReported;\n    }\n \n      /*\n\tviewBankDetail\n\t*/\n \n     function viewBankDetail(address bankAddress)\n         public\n         view\n         returns (\n             string memory,\n             uint256,\n             uint256,\n             string memory\n         )\n        {\n         //checking if bank exist\n        return (banks[bankAddress].bankName,banks[bankAddress].kyc_count,banks[bankAddress].complaintsReported,banks[bankAddress].regNumber);\n     }\n \n \n  function reportBank(address _bank) public {\n        require(banks[msg.sender].ethAddress == msg.sender, \"You are not authorised to report the bank\");\n        banks[_bank].complaintsReported = banks[_bank].complaintsReported + 1;\n        if (banks[_bank].complaintsReported > 1000){\n            banks[_bank].isAllowedtoVote = false;\n        }\n    }\n \n \n \n \n \n \n /*\n\tAdd Bank to the smart contract\n\tadd bank = bank can only be added by the admin\n\tadmin = account which is deploying smart contract\n    mapping to store bankRegistration => bank address\n    mapping(string => address) bankRegStore;\n\t*/\n    function addBank(\n        string memory bankName,\n        address bankAddress,\n        string memory bankRegistration\n    ) public returns (string memory) {\n        //checking if the account used to perform add operation is an Admin\n        require(msg.sender == admin, \"You are not an admin\");\n        require(\n            banks[bankAddress].ethAddress == address(0),\n            \"This bank is already added to the samrt contract\"\n        );\n        //making sure that the registration number is unique\n       // require(\n           // bankRegStore[bankRegistration] == address(0),\n          // \"This Registration number is already assocaited with another bank\"\n        //);\n        //adding bank\n        banks[bankAddress].bankName = bankName;\n        banks[bankAddress].ethAddress = bankAddress;\n        banks[bankAddress].rating = 0;\n        banks[bankAddress].kyc_count = 0;\n        banks[bankAddress].regNumber = bankRegistration;\n \n        bankAddresses.push(bankAddress);\n       // bankRegStore[bankRegistration] = bankAddress;\n        return \"successful entry of bank to the contract\";\n    }\n \n/*\n\tRemove Bank from the smart contract\n\tremove bank = bank can only be removed by the admin\n\tadmin = account which is deploying smart contract\n    */\n    function removeBank(address bankAddress) public returns (string memory) {\n        //checking if the account used to perform remove operation is an Admin\n        require(msg.sender == admin, \"You are not an admin\");\n        uint256 length = bankAddresses.length;\n        for (uint256 i = 0; i < length; i++) {\n            if (bankAddresses[i] == bankAddress) {\n                delete banks[bankAddress];\n                for (uint256 j = i + 1; j < length; j++) {\n                    bankAddresses[j - 1] = bankAddresses[j];\n                }\n                length--;\n                return \"successful removal of the bank from the contract.\";\n            }\n        }\n \n        return \"The bank is already removed from the contract\";\n    }\n \n \n \nfunction updateBankData(address bankAddress, bool _isAllowedtoVote) public {\n        require(admin == msg.sender, \"You are not allowed to Add Bank\");\n        require(banks[bankAddress].ethAddress == bankAddress, \"Bank is not available in the bank list\");\n        banks[bankAddress].isAllowedtoVote = _isAllowedtoVote;\n    }\n \n}\n",
  "sourcePath": "/Users/tj/Desktop/Sunil/KYC/Phase-3/KYC_SC/contracts/KYC.sol",
  "compiler": {
    "name": "solc",
    "version": "0.8.7+commit.e28d00a7.Emscripten.clang"
  },
  "schemaVersion": "3.4.3",
  "updatedAt": "2021-09-09T15:18:07.732Z",
  "networkType": "ethereum",
  "devdoc": {
    "kind": "dev",
    "methods": {
      "addCustomer(bytes32,string)": {
        "params": {
          "": "{string} _hash Hash of the customer's ID submitted for KYC"
        }
      },
      "addKycRequest(bytes32,string)": {
        "params": {
          "": "{address} _bankEthAddress The ethAddress of the bank issuing this request"
        },
        "returns": {
          "_0": "{bool}        True if this function execution was successful"
        }
      },
      "downvoteCustomer(bytes32)": {
        "params": {
          "": "{public} _userName Name of the customer to be upvoted"
        }
      },
      "removeKYCRequest(bytes32)": {
        "params": {
          "": "{string} _userName Name of the customer"
        },
        "returns": {
          "_0": "{uint8}         A 0 indicates failure, 1 indicates success"
        }
      },
      "upvoteCustomer(bytes32)": {
        "params": {
          "": "{public} _userName Name of the customer to be upvoted"
        }
      },
      "viewCustomer(bytes32)": {
        "params": {
          "": "{public} _userName Name of the customer"
        },
        "returns": {
          "_0": "{Customer}         The customer struct as an object"
        }
      }
    },
    "version": 1
  },
  "userdoc": {
    "kind": "user",
    "methods": {
      "addCustomer(bytes32,string)": {
        "notice": "Add a new customer"
      },
      "addKycRequest(bytes32,string)": {
        "notice": "Record a new KYC request on behalf of a customer The sender of message call is the bank itself"
      },
      "constructor": {
        "notice": "Constructor of the contract. We save the contract's admin as the account which deployed this contract."
      },
      "downvoteCustomer(bytes32)": {
        "notice": "Add Downvote to provide ratings on customers Add a new Downvote from a bank"
      },
      "removeKYCRequest(bytes32)": {
        "notice": "Remove KYC request"
      },
      "upvoteCustomer(bytes32)": {
        "notice": "Add upvote to provide ratings on customers Add a new upvote from a bank"
      },
      "viewCustomer(bytes32)": {
        "notice": "View customer information"
      }
    },
    "version": 1
  }
}